{
  "_format": "hh-sol-artifact-1",
  "contractName": "ReviewSystem",
  "sourceName": "contracts/ReviewSystem.sol",
  "abi": [
    {
      "anonymous": false,
      "inputs": [
        {
          "indexed": false,
          "internalType": "address",
          "name": "reviewer",
          "type": "address"
        },
        {
          "indexed": false,
          "internalType": "string",
          "name": "productId",
          "type": "string"
        },
        {
          "indexed": false,
          "internalType": "uint8",
          "name": "rating",
          "type": "uint8"
        },
        {
          "indexed": false,
          "internalType": "string",
          "name": "comment",
          "type": "string"
        }
      ],
      "name": "ReviewSubmitted",
      "type": "event"
    },
    {
      "inputs": [
        {
          "internalType": "string",
          "name": "productId",
          "type": "string"
        }
      ],
      "name": "getAverageRating",
      "outputs": [
        {
          "internalType": "uint256",
          "name": "",
          "type": "uint256"
        }
      ],
      "stateMutability": "view",
      "type": "function"
    },
    {
      "inputs": [
        {
          "internalType": "string",
          "name": "productId",
          "type": "string"
        }
      ],
      "name": "getReviews",
      "outputs": [
        {
          "components": [
            {
              "internalType": "address",
              "name": "reviewer",
              "type": "address"
            },
            {
              "internalType": "string",
              "name": "comment",
              "type": "string"
            },
            {
              "internalType": "uint8",
              "name": "rating",
              "type": "uint8"
            },
            {
              "internalType": "uint256",
              "name": "timestamp",
              "type": "uint256"
            }
          ],
          "internalType": "struct ReviewSystem.Review[]",
          "name": "",
          "type": "tuple[]"
        }
      ],
      "stateMutability": "view",
      "type": "function"
    },
    {
      "inputs": [
        {
          "internalType": "address",
          "name": "",
          "type": "address"
        },
        {
          "internalType": "string",
          "name": "",
          "type": "string"
        }
      ],
      "name": "hasReviewed",
      "outputs": [
        {
          "internalType": "bool",
          "name": "",
          "type": "bool"
        }
      ],
      "stateMutability": "view",
      "type": "function"
    },
    {
      "inputs": [
        {
          "internalType": "string",
          "name": "",
          "type": "string"
        },
        {
          "internalType": "uint256",
          "name": "",
          "type": "uint256"
        }
      ],
      "name": "productReviews",
      "outputs": [
        {
          "internalType": "address",
          "name": "reviewer",
          "type": "address"
        },
        {
          "internalType": "string",
          "name": "comment",
          "type": "string"
        },
        {
          "internalType": "uint8",
          "name": "rating",
          "type": "uint8"
        },
        {
          "internalType": "uint256",
          "name": "timestamp",
          "type": "uint256"
        }
      ],
      "stateMutability": "view",
      "type": "function"
    },
    {
      "inputs": [
        {
          "internalType": "string",
          "name": "productId",
          "type": "string"
        },
        {
          "internalType": "string",
          "name": "comment",
          "type": "string"
        },
        {
          "internalType": "uint8",
          "name": "rating",
          "type": "uint8"
        }
      ],
      "name": "submitReview",
      "outputs": [],
      "stateMutability": "nonpayable",
      "type": "function"
    }
  ],
  "bytecode": "0x6080604052348015600f57600080fd5b5061154b8061001f6000396000f3fe608060405234801561001057600080fd5b50600436106100575760003560e01c80632978465d1461005c5780632f5f42b91461008c578063895f2e50146100bf578063998863fd146100db5780639cef29bf1461010b575b600080fd5b61007660048036038101906100719190610a41565b61013b565b6040516100839190610ca4565b60405180910390f35b6100a660048036038101906100a19190610cf2565b6102c7565b6040516100b69493929190610dc5565b60405180910390f35b6100d960048036038101906100d49190610e3d565b6103df565b005b6100f560048036038101906100f09190610a41565b6106a5565b6040516101029190610ec8565b60405180910390f35b61012560048036038101906101209190610f0f565b6108a2565b6040516101329190610f86565b60405180910390f35b606060008260405161014d9190610fdd565b9081526020016040518091039020805480602002602001604051908101604052809291908181526020016000905b828210156102bc57838290600052602060002090600402016040518060800160405290816000820160009054906101000a900473ffffffffffffffffffffffffffffffffffffffff1673ffffffffffffffffffffffffffffffffffffffff1673ffffffffffffffffffffffffffffffffffffffff16815260200160018201805461020490611023565b80601f016020809104026020016040519081016040528092919081815260200182805461023090611023565b801561027d5780601f106102525761010080835404028352916020019161027d565b820191906000526020600020905b81548152906001019060200180831161026057829003601f168201915b505050505081526020016002820160009054906101000a900460ff1660ff1660ff1681526020016003820154815250508152602001906001019061017b565b505050509050919050565b60008280516020810182018051848252602083016020850120818352809550505050505081815481106102f957600080fd5b9060005260206000209060040201600091509150508060000160009054906101000a900473ffffffffffffffffffffffffffffffffffffffff169080600101805461034390611023565b80601f016020809104026020016040519081016040528092919081815260200182805461036f90611023565b80156103bc5780601f10610391576101008083540402835291602001916103bc565b820191906000526020600020905b81548152906001019060200180831161039f57829003601f168201915b5050505050908060020160009054906101000a900460ff16908060030154905084565b60018160ff16101580156103f7575060058160ff1611155b610436576040517f08c379a000000000000000000000000000000000000000000000000000000000815260040161042d906110a0565b60405180910390fd5b600160003373ffffffffffffffffffffffffffffffffffffffff1673ffffffffffffffffffffffffffffffffffffffff168152602001908152602001600020836040516104839190610fdd565b908152602001604051809103902060009054906101000a900460ff16156104df576040517f08c379a00000000000000000000000000000000000000000000000000000000081526004016104d690611132565b60405180910390fd5b600060405180608001604052803373ffffffffffffffffffffffffffffffffffffffff1681526020018481526020018360ff16815260200142815250905060008460405161052d9190610fdd565b908152602001604051809103902081908060018154018082558091505060019003906000526020600020906004020160009091909190915060008201518160000160006101000a81548173ffffffffffffffffffffffffffffffffffffffff021916908373ffffffffffffffffffffffffffffffffffffffff16021790555060208201518160010190816105c191906112fe565b5060408201518160020160006101000a81548160ff021916908360ff16021790555060608201518160030155505060018060003373ffffffffffffffffffffffffffffffffffffffff1673ffffffffffffffffffffffffffffffffffffffff1681526020019081526020016000208560405161063d9190610fdd565b908152602001604051809103902060006101000a81548160ff0219169083151502179055507f9d4a46450e833aa1980196ec59c185825eaec4e4afc33524011430c6ab7fdfec3385848660405161069794939291906113d0565b60405180910390a150505050565b6000806000836040516106b89190610fdd565b9081526020016040518091039020805480602002602001604051908101604052809291908181526020016000905b8282101561082757838290600052602060002090600402016040518060800160405290816000820160009054906101000a900473ffffffffffffffffffffffffffffffffffffffff1673ffffffffffffffffffffffffffffffffffffffff1673ffffffffffffffffffffffffffffffffffffffff16815260200160018201805461076f90611023565b80601f016020809104026020016040519081016040528092919081815260200182805461079b90611023565b80156107e85780601f106107bd576101008083540402835291602001916107e8565b820191906000526020600020905b8154815290600101906020018083116107cb57829003601f168201915b505050505081526020016002820160009054906101000a900460ff1660ff1660ff168152602001600382015481525050815260200190600101906106e6565b5050505090506000805b82518110156108765782818151811061084d5761084c611423565b5b60200260200101516040015160ff16826108679190611481565b91508080600101915050610831565b50600082510361088b5760009250505061089d565b81518161089891906114e4565b925050505b919050565b6001602052816000526040600020818051602081018201805184825260208301602085012081835280955050505050506000915091509054906101000a900460ff1681565b6000604051905090565b600080fd5b600080fd5b600080fd5b600080fd5b6000601f19601f8301169050919050565b7f4e487b7100000000000000000000000000000000000000000000000000000000600052604160045260246000fd5b61094e82610905565b810181811067ffffffffffffffff8211171561096d5761096c610916565b5b80604052505050565b60006109806108e7565b905061098c8282610945565b919050565b600067ffffffffffffffff8211156109ac576109ab610916565b5b6109b582610905565b9050602081019050919050565b82818337600083830152505050565b60006109e46109df84610991565b610976565b905082815260208101848484011115610a00576109ff610900565b5b610a0b8482856109c2565b509392505050565b600082601f830112610a2857610a276108fb565b5b8135610a388482602086016109d1565b91505092915050565b600060208284031215610a5757610a566108f1565b5b600082013567ffffffffffffffff811115610a7557610a746108f6565b5b610a8184828501610a13565b91505092915050565b600081519050919050565b600082825260208201905092915050565b6000819050602082019050919050565b600073ffffffffffffffffffffffffffffffffffffffff82169050919050565b6000610ae182610ab6565b9050919050565b610af181610ad6565b82525050565b600081519050919050565b600082825260208201905092915050565b60005b83811015610b31578082015181840152602081019050610b16565b60008484015250505050565b6000610b4882610af7565b610b528185610b02565b9350610b62818560208601610b13565b610b6b81610905565b840191505092915050565b600060ff82169050919050565b610b8c81610b76565b82525050565b6000819050919050565b610ba581610b92565b82525050565b6000608083016000830151610bc36000860182610ae8565b5060208301518482036020860152610bdb8282610b3d565b9150506040830151610bf06040860182610b83565b506060830151610c036060860182610b9c565b508091505092915050565b6000610c1a8383610bab565b905092915050565b6000602082019050919050565b6000610c3a82610a8a565b610c448185610a95565b935083602082028501610c5685610aa6565b8060005b85811015610c925784840389528151610c738582610c0e565b9450610c7e83610c22565b925060208a01995050600181019050610c5a565b50829750879550505050505092915050565b60006020820190508181036000830152610cbe8184610c2f565b905092915050565b610ccf81610b92565b8114610cda57600080fd5b50565b600081359050610cec81610cc6565b92915050565b60008060408385031215610d0957610d086108f1565b5b600083013567ffffffffffffffff811115610d2757610d266108f6565b5b610d3385828601610a13565b9250506020610d4485828601610cdd565b9150509250929050565b610d5781610ad6565b82525050565b600082825260208201905092915050565b6000610d7982610af7565b610d838185610d5d565b9350610d93818560208601610b13565b610d9c81610905565b840191505092915050565b610db081610b76565b82525050565b610dbf81610b92565b82525050565b6000608082019050610dda6000830187610d4e565b8181036020830152610dec8186610d6e565b9050610dfb6040830185610da7565b610e086060830184610db6565b95945050505050565b610e1a81610b76565b8114610e2557600080fd5b50565b600081359050610e3781610e11565b92915050565b600080600060608486031215610e5657610e556108f1565b5b600084013567ffffffffffffffff811115610e7457610e736108f6565b5b610e8086828701610a13565b935050602084013567ffffffffffffffff811115610ea157610ea06108f6565b5b610ead86828701610a13565b9250506040610ebe86828701610e28565b9150509250925092565b6000602082019050610edd6000830184610db6565b92915050565b610eec81610ad6565b8114610ef757600080fd5b50565b600081359050610f0981610ee3565b92915050565b60008060408385031215610f2657610f256108f1565b5b6000610f3485828601610efa565b925050602083013567ffffffffffffffff811115610f5557610f546108f6565b5b610f6185828601610a13565b9150509250929050565b60008115159050919050565b610f8081610f6b565b82525050565b6000602082019050610f9b6000830184610f77565b92915050565b600081905092915050565b6000610fb782610af7565b610fc18185610fa1565b9350610fd1818560208601610b13565b80840191505092915050565b6000610fe98284610fac565b915081905092915050565b7f4e487b7100000000000000000000000000000000000000000000000000000000600052602260045260246000fd5b6000600282049050600182168061103b57607f821691505b60208210810361104e5761104d610ff4565b5b50919050565b7f526174696e67206d757374206265206265747765656e203120616e6420350000600082015250565b600061108a601e83610d5d565b915061109582611054565b602082019050919050565b600060208201905081810360008301526110b98161107d565b9050919050565b7f596f75206861766520616c72656164792072657669657765642074686973207060008201527f726f647563740000000000000000000000000000000000000000000000000000602082015250565b600061111c602683610d5d565b9150611127826110c0565b604082019050919050565b6000602082019050818103600083015261114b8161110f565b9050919050565b60008190508160005260206000209050919050565b60006020601f8301049050919050565b600082821b905092915050565b6000600883026111b47fffffffffffffffffffffffffffffffffffffffffffffffffffffffffffffffff82611177565b6111be8683611177565b95508019841693508086168417925050509392505050565b6000819050919050565b60006111fb6111f66111f184610b92565b6111d6565b610b92565b9050919050565b6000819050919050565b611215836111e0565b61122961122182611202565b848454611184565b825550505050565b600090565b61123e611231565b61124981848461120c565b505050565b5b8181101561126d57611262600082611236565b60018101905061124f565b5050565b601f8211156112b25761128381611152565b61128c84611167565b8101602085101561129b578190505b6112af6112a785611167565b83018261124e565b50505b505050565b600082821c905092915050565b60006112d5600019846008026112b7565b1980831691505092915050565b60006112ee83836112c4565b9150826002028217905092915050565b61130782610af7565b67ffffffffffffffff8111156113205761131f610916565b5b61132a8254611023565b611335828285611271565b600060209050601f8311600181146113685760008415611356578287015190505b61136085826112e2565b8655506113c8565b601f19841661137686611152565b60005b8281101561139e57848901518255600182019150602085019450602081019050611379565b868310156113bb57848901516113b7601f8916826112c4565b8355505b6001600288020188555050505b505050505050565b60006080820190506113e56000830187610d4e565b81810360208301526113f78186610d6e565b90506114066040830185610da7565b81810360608301526114188184610d6e565b905095945050505050565b7f4e487b7100000000000000000000000000000000000000000000000000000000600052603260045260246000fd5b7f4e487b7100000000000000000000000000000000000000000000000000000000600052601160045260246000fd5b600061148c82610b92565b915061149783610b92565b92508282019050808211156114af576114ae611452565b5b92915050565b7f4e487b7100000000000000000000000000000000000000000000000000000000600052601260045260246000fd5b60006114ef82610b92565b91506114fa83610b92565b92508261150a576115096114b5565b5b82820490509291505056fea26469706673582212201d18f869c634e4d4946d0809ce5c16c37f59b8d2ce29ccbc8474280f5117aecc64736f6c634300081c0033",
  "linkReferences": {},
  "deployedLinkReferences": {}
}